S01E0000546F67676C655F4C4544735F41737369676E6D656E742E7372656385
S11300000C942A000C9434000C9434000C943400A6
S11300100C9434000C9434000C9434000C9434008C
S11300200C9434000C9434000C9434000C9434007C
S11300300C9434000C9434000C9434000C9434006C
S11300400C9434000C9434000C9434000C9434005C
S11300500C94340011241FBECFE5D8E0DEBFCDBF21
S11300600E946E010C948B010C940000813011F1FC
S113007030F08230D1F1833009F452C00895413018
S113008059F42AB381E090E002C0880F991F6A9561
S1130090E2F7822B8ABB089541115CC02AB381E048
S11300A090E002C0880F991F6A95E2F78095822339
S11300B08ABB0895413059F427B381E090E002C02F
S11300C0880F991F6A95E2F7822B87BB0895411127
S11300D041C027B381E090E002C0880F991F6A9560
S11300E0E2F78095822387BB0895413059F424B305
S11300F081E090E002C0880F991F6A95E2F7822B95
S113010084BB0895411126C024B381E090E002C06D
S1130110880F991F6A95E2F78095822384BB08951E
S1130120413059F421B381E090E002C0880F991F57
S11301306A95E2F7822B81BB089541110BC021B36C
S113014081E090E002C0880F991F6A95E2F78095DC
S1130150822381BB0895813011F130F08230D1F1D6
S1130160833009F452C00895413059F42BB381E02F
S113017090E002C0880F991F6A95E2F7822B8BBB2F
S1130180089541115CC02BB381E090E002C0880F58
S1130190991F6A95E2F7809582238BBB08954130BD
S11301A059F428B381E090E002C0880F991F6A9542
S11301B0E2F7822B88BB0895411141C028B381E046
S11301C090E002C0880F991F6A95E2F78095822318
S11301D088BB0895413059F425B381E090E002C012
S11301E0880F991F6A95E2F7822B85BB0895411108
S11301F026C025B381E090E002C0880F991F6A955C
S1130200E2F78095822385BB0895413059F422B3E7
S113021081E090E002C0880F991F6A95E2F7822B73
S113022082BB089541110BC022B381E090E002C06B
S1130230880F991F6A95E2F78095822382BB0895FF
S113024041E065E083E00E94360041E066E083E03F
S11302500E94360041E067E083E00E94360040E0FF
S113026065E083E00E94AB0040E066E083E00E942A
S1130270AB0040E067E083E00E94AB00089540E0FB
S113028065E083E00E94AB0040E066E083E00E940A
S1130290AB0040E067E083E00E94AB00089541E0DA
S11302A064E083E00E94360040E064E083E00E9462
S11302B0AB00089541E064E083E00E94AB002FE3CB
S11302C08DE093E0215080409040E1F700C00000B1
S11302D040E064E083E00E94AB0008950E942001A6
S11302E00E944F01C5E00E943F0141E06C2F83E072
S11302F00E94AB002FE38DE093E0215080409040BA
S1130300E1F700C00000CF5FC83069F70E943F01E9
S10D03100E945A01E7CFF894FFCFD2
S9030000FC
