:100000000C942A000C9434000C9434000C943400AA
:100010000C9434000C9434000C9434000C94340090
:100020000C9434000C9434000C9434000C94340080
:100030000C9434000C9434000C9434000C94340070
:100040000C9434000C9434000C9434000C94340060
:100050000C94340011241FBECFE5D8E0DEBFCDBF25
:100060000E940A010C9473020C940000CF93C82FD5
:1000700065B36F70807F682B82E00E94B80185B302
:100080008D7F85BB85B3886085BB89EF90E0019744
:10009000F1F700C0000085B3877F85BB83EC99E052
:1000A0000197F1F700C0000065B320E1C29FC001D5
:1000B00011246F70682B82E00E94B80185B38D7F98
:1000C00085BB85B3886085BB89EF90E00197F1F728
:1000D00000C0000085B3877F85BB83EC99E0019762
:1000E000F1F700C00000CF91089561E082E00E9426
:1000F0008C0140E061E082E00E94170140E062E094
:1001000082E00E94170140E063E082E00E94170154
:1001100040E064E082E00E94170140E065E082E098
:100120000E94170140E066E082E00E94170140E073
:1001300067E082E00E94170183E30E94360082E3B9
:100140000E94360088E20E9436008EE00E9436004F
:1001500081E00E94360083EF91E00197F1F700C043
:10016000000086E00E9436000895CF93C82F65B343
:100170006F70807F682B82E00E94B80185B3826037
:1001800085BB85B3886085BB89EF90E00197F1F767
:1001900000C0000085B3877F85BB83EC99E00197A1
:1001A000F1F700C0000065B320E1C29FC001112437
:1001B0006F70682B82E00E94B80185B3826085BBB6
:1001C00085B3886085BB89EF90E00197F1F700C0A7
:1001D000000085B3877F85BB83EC99E00197F1F739
:1001E00000C00000CF9108950F931F93CF93DF932A
:1001F0008C01C0E0D0E003C00E94B5002196F80158
:10020000EC0FFD1F80818111F7CFDF91CF911F91FE
:100210000F9108950E94750043E060E080E895E248
:100220000E94C8010E941F020E94F400FBCF81308F
:1002300011F130F08230D1F1833009F452C00895C9
:10024000413059F42BB381E090E002C0880F991F30
:100250006A95E2F7822B8BBB089541115CC02BB3EA
:1002600081E090E002C0880F991F6A95E2F78095BF
:1002700082238BBB0895413059F428B381E090E08C
:1002800002C0880F991F6A95E2F7822B88BB0895F8
:10029000411141C028B381E090E002C0880F991F4E
:1002A0006A95E2F78095822388BB0895413059F41E
:1002B00025B381E090E002C0880F991F6A95E2F7AC
:1002C000822B85BB0895411126C025B381E090E0C3
:1002D00002C0880F991F6A95E2F78095822385BB3B
:1002E0000895413059F422B381E090E002C0880FB4
:1002F000991F6A95E2F7822B82BB089541110BC0CA
:1003000022B381E090E002C0880F991F6A95E2F75E
:100310008095822382BB0895813079F028F0823065
:10032000A9F08330E1F00895613019F48FEF8ABBB2
:10033000089561111CC01ABA0895613019F48FEF45
:1003400087BB0895611113C017BA0895613019F47D
:100350008FEF84BB089561110AC014BA089561300B
:1003600019F48FEF81BB0895611101C011BA08958E
:10037000813041F028F0823039F0833039F008952F
:100380006BBB089568BB089565BB089562BB089573
:100390009C018AB188618AB9611114C0413049F069
:1003A00028F0423049F0433051F021C080E880BD50
:1003B0001EC082E880BD1BC084E880BD18C086E8EE
:1003C00080BD15C0613099F4413049F028F04230C9
:1003D00049F0433051F00BC088E880BD08C08AE87E
:1003E00080BD05C08CE880BD02C08EE880BDC9011B
:1003F000A0E0B0E0880F991FAA1FBB1F880F991FAC
:10040000AA1FBB1F9C01AD01220F331F441F551FA4
:10041000220F331F441F551F60E072E18AE790E00E
:100420000E9451022150310929B930BD08955D9BC8
:10043000FECF8CB908955F9BFECF8CB108950F93CA
:100440001F93CF93DF93CDB7DEB7E2970FB6F89443
:10045000DEBF0FBECDBFFE01319682E3DF011D92EC
:100460008A95E9F700E010E00DC00E941B02182FEA
:100470000E941702E1E0F0E0EC0FFD1FE00FF11D1C
:1004800010830F5F103289F7CE010196E2960FB606
:10049000F894DEBF0FBECDBFDF91CF911F910F91BA
:1004A0000895A1E21A2EAA1BBB1BFD010DC0AA1FB5
:1004B000BB1FEE1FFF1FA217B307E407F50720F0CD
:1004C000A21BB30BE40BF50B661F771F881F991F48
:1004D0001A9469F760957095809590959B01AC0191
:0A04E000BD01CF010895F894FFCF8D
:00000001FF
