:100000000C942A000C9434000C9434000C943400AA
:100010000C9434000C9434000C9434000C94340090
:100020000C9434000C9434000C9434000C94340080
:100030000C9434000C9434000C9434000C94340070
:100040000C9434000C9434000C9434000C94340060
:100050000C94340011241FBECFE5D8E0DEBFCDBF25
:100060000E9436000C9489000C940000CF93DF931B
:1000700000D01F92CDB7DEB7BB9A80E4898380E3BE
:100080008A8382E08B83CE0101960E944B0080E53B
:100090000E945700FCCFFC0123B78081822B918105
:1000A000282F292B9281822F892B83BF08952FEF30
:1000B000829FC001112464E670E00E9461006CBF61
:1000C000089597FB072E16F4009407D077FD09D00A
:1000D0000E94750007FC05D03EF4909581959F4FD6
:1000E0000895709561957F4F0895AA1BBB1B51E140
:1000F00007C0AA1FBB1FA617B70710F0A61BB70B98
:10010000881F991F5A95A9F780959095BC01CD013C
:060110000895F894FFCFF2
:00000001FF
