S01C00005072696E745F4D6573736167655F6F6E5F4C43442E7372656369
S11300000C942A000C943F000C943F000C943F0085
S11300100C943F000C943F000C943F000C943F0060
S11300200C943F000C943F000C943F000C943F0050
S11300300C943F000C943F000C943F000C943F0040
S11300400C943F000C943F000C943F000C943F0030
S11300500C943F0011241FBECFE5D8E0DEBFCDBF16
S113006010E0A0E6B0E0E8E6F3E002C005900D92EF
S1130070A037B107D9F70E94FA000C94B2010C948E
S11300800000CF93C82F6BB36F70807F682B80E024
S11300900E94A201C198C39A89EF90E00197F1F7F9
S11300A000C00000C39883EC99E00197F1F700C009
S11300B000006BB36F7020E1C29FC0011124682B54
S11300C080E00E94A201C198C39A89EF90E0019751
S11300D0F1F700C00000C39883EC99E00197F1F7B1
S11300E000C00000CF91089561E080E00E94760195
S11300F061E081E00E94760140E061E081E00E94DD
S1130100010140E062E081E00E94010140E063E01F
S113011081E00E94010140E064E080E00E9401016E
S113012040E065E080E00E94010140E066E080E09C
S11301300E94010140E067E080E00E94010183E346
S11301400E94410082E30E94410088E20E94410033
S11301508EE00E94410081E00E94410083EF91E023
S11301600197F1F700C0000086E00E944100089565
S1130170CF93C82F6BB36F70807F682B80E00E9491
S1130180A201C19AC39A89EF90E00197F1F700C0E8
S11301900000C39883EC99E00197F1F700C00000D8
S11301A06BB36F7020E1C29FC0011124682B80E003
S11301B00E94A201C19AC39A89EF90E00197F1F7D6
S11301C000C00000C39883EC99E00197F1F700C0E8
S11301D00000CF910895CF93DF93EC0188818823A9
S11301E031F021960E94B80089918111FBCFDF91F3
S11301F0CF9108950E94740080E690E00E94EB0085
S1130200FFCF813011F130F08230D1F1833009F425
S113021052C00895413059F42BB381E090E002C0FC
S1130220880F991F6A95E2F7822B8BBB08954111C1
S11302305CC02BB381E090E002C0880F991F6A95DF
S1130240E2F7809582238BBB0895413059F428B39B
S113025081E090E002C0880F991F6A95E2F7822B33
S113026088BB0895411141C028B381E090E002C0E9
S1130270880F991F6A95E2F78095822388BB0895B9
S1130280413059F425B381E090E002C0880F991FF2
S11302906A95E2F7822B85BB0895411126C025B3E8
S11302A081E090E002C0880F991F6A95E2F780957B
S11302B0822385BB0895413059F422B381E090E054
S11302C002C0880F991F6A95E2F7822B82BB0895BA
S11302D041110BC022B381E090E002C0880F991F46
S11302E06A95E2F78095822382BB0895813079F084
S11302F028F08230A9F08330E1F00895613019F4D8
S11303008FEF8ABB089561111CC01ABA0895613039
S113031019F48FEF87BB0895611113C017BA0895BC
S1130320613019F48FEF84BB089561110AC014BAC7
S11303300895613019F48FEF81BB0895611101C0F4
S113034011BA0895813041F028F0823039F08330B9
S113035039F008956BBB089568BB089565BB089593
S10B036062BB0895F894FFCF7D
S11303684C6561726E2D496E2D4465707468000089
S9030000FC
