:020000040800F2
:1000000000280020051000085510000855100008B1
:100010005510000855100008551000080000000099
:100020000000000000000000000000005510000863
:100030005510000800000000551000085510000879
:1000400055100008551000085510000855100008FC
:100050005510000855100008A5020008C902000844
:10006000ED020008110300083503000855100008D0
:1000700055100008551000085510000855100008CC
:1000800055100008551000085510000855100008BC
:1000900055100008551000085510000859030008B5
:1000A000551000085510000855100008551000089C
:1000B000551000085510000855100008551000088C
:1000C000551000085510000855100008610E000872
:1000D000BD0E0008190F00082D0F0008410F000881
:1000E0000104000855100008000000005510000829
:1000F000551000085510000855100008551000084C
:10010000551000085510000855100008551000083B
:10011000551000085510000855100008551000082B
:10012000551000085510000855100008551000081B
:1001300010B5054C237833B9044B13B10448AFF321
:1001400000800123237010BD00000020000000008B
:10015000A010000808B5034B1BB103490348AFF3D7
:10016000008008BD0000000004000020A01000086E
:1001700080B588B000AF4FF48063BB61094B3B6032
:100180000023BB600023FB6100237B60064800F076
:10019000A3FB3B461946044800F096FA00BF2037FF
:1001A000BD4680BDA08601000054004080B5C8B0A7
:1001B00002AF07F10C03186007F1080319603B1D3B
:1001C0001A600023C7F8143107F10C031B681B0ADF
:1001D000DAB207F114031A7007F10C031B68DAB2E4
:1001E00007F114035A700223C7F8143113E0D7F84B
:1001F0001431023B07F1080212681344197807F121
:100200001402D7F8143113440A461A70D7F814317F
:100210000133C7F814313B1D1B689A1CD7F8143101
:100220009A42E4D83B1D1B68991C07F11402012374
:100230000193012300930B462A21044800F096FB0A
:100240000023184607F58C77BD4680BD005400405A
:1002500080B588B002AFF860B9607A60FB681B0AAD
:10026000DBB23B75FB68DBB27B7507F1140201233F
:1002700001930023009302232A21094800F076FB12
:1002800000230193012300937B68BA682A21044864
:1002900000F0C0FB002318461837BD4680BD00BFE4
:1002A0000054004080B500AF054B5B69044A43F041
:1002B00001035361034B1B68984700BF80BD00BF1B
:1002C000000401407000002080B500AF054B5B6961
:1002D000044A43F002035361034B5B68984700BF35
:1002E00080BD00BF000401407000002080B500AF59
:1002F000054B5B69044A43F004035361034B9B685D
:10030000984700BF80BD00BF00040140700000207E
:1003100080B500AF054B5B69044A43F008035361A5
:10032000034BDB68984700BF80BD00BF000401405D
:100330007000002080B500AF054B5B69044A43F0B4
:1003400010035361034B1B69984700BF80BD00BF7A
:10035000000401407000002080B500AF264B5B69AF
:1003600003F02003002B08D0234B5B69224A43F0A3
:1003700020035361214B5B6998471F4B5B6903F076
:100380004003002B08D01C4B5B691B4A43F0400321
:1003900053611A4B9B699847174B5B6903F08003C5
:1003A000002B08D0144B5B69134A43F08003536160
:1003B000124BDB699847104B5B6903F48073002B89
:1003C00008D00D4B5B690C4A43F4807353610B4BAF
:1003D0001B6A9847084B5B6903F40073002B08D035
:1003E000054B5B69044A43F400735361034B5B6A3A
:1003F000984700BF80BD00BF00040140700000208E
:1004000080B500AF264B5B6903F48063002B08D0F6
:10041000234B5B69224A43F480635361214B9B6AFF
:1004200098471F4B5B6903F40063002B08D01C4BFB
:100430005B691B4A43F4006353611A4BDB6A9847BC
:10044000174B5B6903F48053002B08D0144B5B6996
:10045000134A43F480535361124B1B6B9847104B64
:100460005B6903F40053002B08D00D4B5B690C4A09
:1004700043F4005353610B4B5B6B9847084B5B692C
:1004800003F48043002B08D0054B5B69044A43F416
:1004900080435361034B9B6B984700BF80BD00BFF7
:1004A000000401407000002080B483B000AF034618
:1004B000FB80FB88802B42D0802B11DC082B36D0B0
:1004C000082B06DC022B2ED0042B2ED0012B28D09B
:1004D00047E0202B2FD0402B2FD0102B29D040E0ED
:1004E000B3F5006F33D0B3F5006F09DCB3F5007FCF
:1004F00029D0B3F5806F28D0B3F5807F21D030E0CC
:10050000B3F5005F27D0B3F5005F03DCB3F5805F80
:100510001FD026E0B3F5804F1FD0B3F5004F1ED09B
:100520001FE000231DE004231BE0082319E00C2337
:1005300017E0102315E0142313E0182311E01C2307
:100540000FE000230DE004230BE0082309E00C2357
:1005500007E0102305E0142303E0182301E01C2327
:10056000FFE718460C37BD4680BC704790B585B094
:1005700000AF786039600023FB730023BB603B68E9
:100580001B88FF2B01D87B6801E07B680433BB60CC
:100590003B681B881846FFF787FF02460F239340EE
:1005A000DA43BB681B681A40BB681A603B689B78DB
:1005B000072B0BD03B689B78062B07D03B689B78BA
:1005C000042B03D03B689B78052B1CD13B689B78A0
:1005D000043B9B005AB23B68DB785BB213435BB2CF
:1005E000DBB203F00F03FB73FC7B3B681B881846F0
:1005F000FFF75AFF034604FA03F2BB681B681A436D
:10060000BB681A605CE03B689B78012B03D03B68B9
:100610009B78002B15D13B689B789B00DBB203F0E5
:100620000F03FB73FC7B3B681B881846FFF73CFFFE
:10063000034604FA03F2BB681B681A43BB681A60DE
:100640003EE03B689B78082B15D13B689B789B006C
:10065000DBB203F00F03FB73FC7B3B681B8818467F
:10066000FFF722FF034604FA03F2BB681B681A4334
:10067000BB681A6024E00823FB733B689B78022B5D
:1006800007D17B68DB683A6812881A437B68DA60B6
:1006900007E07B68DB683A681288D2431A407B68BF
:1006A000DA60FC7B3B681B881846FFF7FDFE0346BB
:1006B00004FA03F2BB681B681A43BB681A60FFE7C1
:1006C00000BF1437BD4690BDB0B586B000AF7860AE
:1006D00039600023FB820023BB8200237B82754BA1
:1006E000FB607B68744A934210D1744BDB69734A98
:1006F00043F40013D361724A3B6814461D460FCD84
:100700000FC495E80F0084E80F0010E06B4BDB6925
:100710006A4A43F48003D361694B3A6803F12004C9
:1007200015460FCD0FC495E80F0084E80F003B6815
:100730009B68002B40F0BA807B685B68FB827B681B
:100740005B6823F03F027B685A6000F04BFBF86067
:10075000FB685C4AA2FB03239B0CBB82FA8ABB8A20
:100760001343FB82FA8A7B685A607B681B6823F01C
:1007700001027B681A600023FB823B681B684CF215
:100780005032934204D03B681B684F4A934212D1C7
:100790003B681B685B00FA68B2FBF3F37B82FA8A62
:1007A0007B8A1343FB82FA8A7B68DA61BB8A013356
:1007B0001A467B681A627B681B68FB823B689B69F0
:1007C0009AB23B689B689BB213439AB23B685B68E2
:1007D0009BB213439AB2FB8A1343FB82FA8A7B686B
:1007E0001A600023FB823B689B89012B0DD10123FA
:1007F000FB823B681B8A5B001AB2B7F916301343C1
:100800001BB2FB82FA8A7B68DA600023FB823B68BA
:10081000DB895B001AB2B7F9163013431BB2FB82B7
:100820003B685B699AB2FB8A1343FB82FA8A7B6856
:100830009A603B68DB69002B32D07B685B6843F4CD
:1008400080627B685A607B685B6843F400727B68F7
:100850005A607B685B6843F480727B685A607B688F
:10086000154A93420CD1194B1B68184A43F00043B8
:100870001360174B1B68164A43F0010313600FE027
:100880007B68144A93420BD1114B1B68104A43F00A
:10089000020313600E4B1B680D4A43F00403136000
:1008A0007B681B6843F001027B681A6000BF183741
:1008B000BD46B0BD00127A00005400400010024056
:1008C0001C00002083DE1B43A086010000E100E045
:1008D00004E100E00058004080B584B000AF7860CB
:1008E0007B681F4A934218D10723BB730123FB7314
:1008F0004023BB8107F10C0319461A48FFF736FE67
:100900000723BB730123FB738023BB8107F10C0317
:1009100019461448FFF72AFE1DE07B68124A9342ED
:1009200019D10723BB730123FB734FF48063BB8191
:1009300007F10C0319460B48FFF718FE0723BB739A
:100940000123FB734FF40063BB8107F10C031946CD
:100950000448FFF70BFE00BF1037BD4680BD00BF47
:1009600000540040000C01400058004080B586B0A3
:1009700000AFF8607A603B600B467B8100237B61AF
:1009800001220121F86800F0B9F800BF0121F868E0
:1009900000F0DCF80346002BF8D07B8900221946D2
:1009A000F86800F04FF900BF0221F86800F0CEF8B7
:1009B0000346002BF8D000BF1549F86800F0C6F8D0
:1009C0000346002BF8D000237B6111E07B697A6835
:1009D00013441B781A46FB681A6100BF0421F868AB
:1009E00000F0B4F80346002BF8D07B6901337B613B
:1009F0007B693A689A42E9D897F82030012B03D1F5
:100A00000121F86800F03DF900BF1837BD4680BDF0
:100A10008000070080B586B000AFF8607A603B6068
:100A20000B467B8100237B61FB68324A934214BFF3
:100A300001230023DBB2FB7401220121F86800F0DE
:100A40005DF800BF0121F86800F080F80346002B34
:100A5000F8D07B8901221946F86800F0F3F800BF4E
:100A60000221F86800F072F80346002BF8D001214B
:100A7000F86800F021F93B68002B1CD03B687B61D3
:100A800012E000BF0321F86800F060F80346002B75
:100A9000F8D0FB681B69DAB27B681A707B68013397
:100AA0007B607B69013B7B617B69012BE9DC002179
:100AB000F86800F001F997F82030012B03D10121EB
:100AC000F86800F0DEF8FB7C0B4A5B011344183336
:100AD0001B68B3F5806F04D10121F86800F0ECF8D1
:100AE00003E00021F86800F0E7F800BF1837BD46C2
:100AF00080BD00BF005400401C00002080B582B0C3
:100B000000AF78600B46FB701346BB70BB78012BBF
:100B100007D100BF0021786800F018F80346002BC9
:100B2000F8D1FB78002B06D07B681B6843F48072F9
:100B30007B681A6005E07B681B6823F480727B6821
:100B40001A6000BF0837BD4680BD000080B487B082
:100B500000AF786039600023FB7500233B61002300
:100B6000FB600023BB603B68022B26D0022B04D81D
:100B7000002B0AD0012B14D05CE0042B29D0042BCD
:100B800033D32F4A93423CD054E07B689B6903F0F7
:100B90000203002B02D00123FB754BE00023FB7501
:100BA00048E07B685B6903F00103002B02D001235E
:100BB000FB753FE00023FB753CE07B685B6903F05D
:100BC0000203002B02D00123FB7533E00023FB75E9
:100BD00030E07B685B6903F08003002B02D00123C7
:100BE000FB7527E00023FB7524E07B685B6903F05D
:100BF0004003002B02D00123FB751BE00023FB7593
:100C000018E080233B610723FB607B685A693B69DE
:100C10001A407B689969FB680B401B041343BB6057
:100C2000BA683B689A4202D10123FB7501E00023B8
:100C3000FB7500BFFB7D18461C37BD4680BC704766
:100C40008000070080B483B000AF78600B467B80E3
:100C500013467B707B885B007B807B78002B04D104
:100C60007B8823F001037B8003E07B8843F0010352
:100C70007B807A887B681A6100BF0C37BD4680BCD8
:100C8000704780B483B000AF78600B46FB70FB7890
:100C9000002B06D07B681B6843F400727B681A60E7
:100CA00005E07B681B6823F400727B681A6000BF54
:100CB0000C37BD4680BC704780B483B000AF78600D
:100CC0000B46FB70FB78012B06D17B681B6843F455
:100CD00080627B681A6005E07B681B6823F4806291
:100CE0007B681A6000BF0C37BD4680BC70470000AF
:100CF00080B400AF0A4B5B689B0803F00303012B31
:100D000006D0012B02D3022B04D005E0054B03E0F3
:100D1000054B01E0044BFFE71846BD4680BC704719
:100D20000010024000127A000024F40080B584B064
:100D300000AF2B4B5B681B0903F00F03BB60BB6864
:100D40000F2B40D801A252F823F000BF8D0D0008F0
:100D50008D0D00088D0D00088D0D00088D0D00080B
:100D60008D0D00088D0D00088D0D0008930D0008F5
:100D7000990D00089F0D0008A50D0008AB0D000897
:100D8000B10D0008B70D0008BF0D00080123FB607E
:100D900019E00223FB6016E00423FB6013E0082344
:100DA000FB6010E01023FB600DE04023FB600AE0D5
:100DB0008023FB6007E04FF48073FB6003E04FF497
:100DC0000073FB6000BFFFF793FF0246FB68B2FBB6
:100DD000F3F37B607B6818461037BD4680BD00BFCB
:100DE0000010024080B584B000AF1C4B5B681B0A4A
:100DF00003F00703BB60BB68072B22D801A252F89F
:100E000023F000BF250E0008250E0008250E00085F
:100E1000250E00082B0E0008310E0008370E0008C2
:100E20003D0E00080123FB600BE00223FB6008E09D
:100E30000423FB6005E00823FB6002E01023FB6055
:100E400000BFFFF773FF0246FB68B2FBF3F37B6062
:100E50007B6818461037BD4680BD00BF00100240B9
:100E600080B582B000AF134B9B685B0803F00103B1
:100E7000DAB23B7962F300033B710E4B9B6803F0DF
:100E80000103DAB23B7962F341033B71094B9B6882
:100E90001B0903F00103DAB23B7962F382033B7171
:100EA000054B1B681B693879984700BF0837BD465A
:100EB00080BD00BF003001405C00002080B582B0E2
:100EC00000AF134B9B685B0803F00103DAB23B7978
:100ED00062F300033B710E4B9B6803F00103DAB22F
:100EE0003B7962F341033B71094B9B681B0903F09B
:100EF0000103DAB23B7962F382033B71054B5B6815
:100F00001B693879984700BF0837BD4680BD00BFD0
:100F1000003800405C00002080B500AF024B1B6829
:100F20005B69984700BF80BD6400002080B500AFBA
:100F3000024B5B685B69984700BF80BD640000207E
:100F400080B500AF024B9B685B69984700BF80BDCE
:100F50006400002080B400AF0A4B9B69094A43F04B
:100F600004039361074B9B69064A43F008039361AE
:100F7000044B9B69034A43F00103936100BFBD46E4
:100F800080BC70470010024080B584B000AFFFF70E
:100F9000E1FFFFF7EDF81A4A07F1080392E80300B2
:100FA00018600433198002330A0C1A703B46002281
:100FB0001A60C3F8032007F1080307221946AF207F
:100FC000FFF7F4F83B4607221946AF20FFF740F938
:100FD0000A233B720B237B720C23BB720D23FB7223
:100FE00007F108030422194640F6FF70FFF7DEF808
:100FF0003B460422194640F6FF70FFF729F9FEE749
:10100000B81000080D488546AFF300800C480D4924
:101010000D4A002302E0D458C4500433C4188C4253
:10102000F9D30A4A0A4C002301E013600432A242B9
:10103000FBD300F011F8FFF7A7FFFEE70028002020
:101040000000002000000020C81000080000002060
:10105000AC000020FEE7000070B500250C4E0D4CE2
:10106000A41BA410A54209D100F01AF800250A4ECD
:101070000A4CA41BA410A54205D170BD56F825301A
:1010800098470135EEE756F8253098470135F2E7E5
:10109000C0100008C0100008C0100008C4100008EC
:1010A000F8B500BFF8BC08BC9E467047F8B500BF55
:0810B000F8BC08BC9E46704725
:0810B800010203040506070014
:0410C00055010008CE
:0410C40031010008EE
:0400000508001005DA
:00000001FF
