:020000040800F2
:1000000000280020B11000080111000801110008AB
:100010000111000801110008011100080000000092
:1000200000000000000000000000000001110008B6
:100030000111000800000000011100080111000872
:100040000111000801110008011100080111000848
:100050000111000801110008710100089501000854
:10006000B9010008DD0100080102000801110008C3
:100070000111000801110008011100080111000818
:100080000111000801110008011100080111000808
:1000900001110008011100080111000825020008E3
:1000A00001110008011100080111000801110008E8
:1000B00001110008011100080111000801110008D8
:1000C000011100080111000801110008110B0008BE
:1000D0006D0B0008590F00086D0F0008810F000814
:1000E000CD02000801110008000000000111000805
:1000F0000111000801110008011100080111000898
:100100000111000801110008011100080111000887
:100110000111000801110008011100080111000877
:100120000111000801110008011100080111000867
:1001300010B5054C237833B9044B13B10448AFF321
:1001400000800123237010BD00000020000000008B
:100150004C11000808B5034B1BB103490348AFF32A
:10016000008008BD00000000040000204C110008C1
:1001700080B500AF054B5B69044A43F0010353614E
:10018000034B1B68984700BF80BD00BF00040140BF
:100190003000002080B500AF054B5B69044A43F096
:1001A00002035361034B5B68984700BF80BD00BFEB
:1001B000000401403000002080B500AF054B5B69B2
:1001C000044A43F004035361034B9B68984700BF04
:1001D00080BD00BF000401403000002080B500AFAA
:1001E000054B5B69044A43F008035361034BDB682A
:1001F000984700BF80BD00BF0004014030000020D0
:1002000080B500AF054B5B69044A43F010035361AE
:10021000034B1B69984700BF80BD00BF000401402D
:100220003000002080B500AF264B5B6903F020034F
:10023000002B08D0234B5B69224A43F02003536113
:10024000214B5B6998471F4B5B6903F04003002B10
:1002500008D01C4B5B691B4A43F0400353611A4BA7
:100260009B699847174B5B6903F08003002B08D00C
:10027000144B5B69134A43F080035361124BDB69F3
:100280009847104B5B6903F48073002B08D00D4B2B
:100290005B690C4A43F4807353610B4B1B6A9847AC
:1002A000084B5B6903F40073002B08D0054B5B69B6
:1002B000044A43F400735361034B5B6A984700BFE1
:1002C00080BD00BF000401403000002080B500AFB9
:1002D000264B5B6903F48063002B08D0234B5B69DA
:1002E000224A43F480635361214B9B6A98471F4B1A
:1002F0005B6903F40063002B08D01C4B5B691B4A4D
:1003000043F4006353611A4BDB6A9847174B5B69F0
:1003100003F48053002B08D0144B5B69134A43F459
:1003200080535361124B1B6B9847104B5B6903F46E
:100330000053002B08D00D4B5B690C4A43F400536B
:1003400053610B4B5B6B9847084B5B6903F480432D
:10035000002B08D0054B5B69044A43F4804353618A
:10036000034B9B6B984700BF80BD00BF000401405A
:100370003000002080B483B000AF0346FB80FB88D0
:10038000802B42D0802B11DC082B36D0082B06DCCA
:10039000022B2ED0042B2ED0012B28D047E0202B6F
:1003A0002FD0402B2FD0102B29D040E0B3F5006F79
:1003B00033D0B3F5006F09DCB3F5007F29D0B3F576
:1003C000806F28D0B3F5807F21D030E0B3F5005F97
:1003D00027D0B3F5005F03DCB3F5805F1FD026E0C4
:1003E000B3F5804F1FD0B3F5004F1ED01FE00023A0
:1003F0001DE004231BE0082319E00C2317E0102361
:1004000015E0142313E0182311E01C230FE0002350
:100410000DE004230BE0082309E00C2307E0102380
:1004200005E0142303E0182301E01C23FFE718462E
:100430000C37BD4680BC704790B585B000AF786082
:1004400039600023FB730023BB603B681B88FF2BD4
:1004500001D87B6801E07B680433BB603B681B8884
:100460001846FFF787FF02460F239340DA43BB6825
:100470001B681A40BB681A603B689B78072B0BD03F
:100480003B689B78062B07D03B689B78042B03D0F6
:100490003B689B78052B1CD13B689B78043B9B00F9
:1004A0005AB23B68DB785BB213435BB2DBB203F05A
:1004B0000F03FB73FC7B3B681B881846FFF75AFF52
:1004C000034604FA03F2BB681B681A43BB681A6050
:1004D0005CE03B689B78012B03D03B689B78002B4A
:1004E00015D13B689B789B00DBB203F00F03FB73D5
:1004F000FC7B3B681B881846FFF73CFF034604FA69
:1005000003F2BB681B681A43BB681A603EE03B6895
:100510009B78082B15D13B689B789B00DBB203F0DE
:100520000F03FB73FC7B3B681B881846FFF722FF19
:10053000034604FA03F2BB681B681A43BB681A60DF
:1005400024E00823FB733B689B78022B07D17B6870
:10055000DB683A6812881A437B68DA6007E07B68D8
:10056000DB683A681288D2431A407B68DA60FC7B09
:100570003B681B881846FFF7FDFE034604FA03F2AA
:10058000BB681B681A43BB681A60FFE700BF1437DB
:10059000BD4690BD80B483B000AF78600B467B80D1
:1005A00013467B707B78002B06D07B68DA687B88EB
:1005B0001A437B68DA6006E07B68DA687B88DB4395
:1005C0001A407B68DA6000BF0C37BD4680BC7047BC
:1005D00080B400AF0A4B5B689B0803F00303012B58
:1005E00006D0012B02D3022B04D005E0054B03E01B
:1005F000054B01E0044BFFE71846BD4680BC704741
:100600000010024000127A000024F40080B584B08B
:1006100000AF2B4B5B681B0903F00F03BB60BB688B
:100620000F2B40D801A252F823F000BF6D0600083E
:100630006D0600086D0600086D0600086D060008CE
:100640006D0600086D0600086D06000873060008B8
:10065000790600087F060008850600088B0600085A
:1006600091060008970600089F0600080123FB601A
:1006700019E00223FB6016E00423FB6013E008236B
:10068000FB6010E01023FB600DE04023FB600AE0FC
:100690008023FB6007E04FF48073FB6003E04FF4BE
:1006A0000073FB6000BFFFF793FF0246FB68B2FBDD
:1006B000F3F37B607B6818461037BD4680BD00BFF2
:1006C0000010024080B584B000AF1C4B5B681B0A71
:1006D00003F00703BB60BB68072B22D801A252F8C6
:1006E00023F000BF050700080507000805070008FC
:1006F000050700080B070008110700081707000886
:100700001D0700080123FB600BE00223FB6008E0EB
:100710000423FB6005E00823FB6002E01023FB607C
:1007200000BFFFF773FF0246FB68B2FBF3F37B6089
:100730007B6818461037BD4680BD00BF00100240E0
:1007400080B584B000AF1C4B5B68DB0A03F0070385
:10075000BB60BB68072B22D801A252F823F000BF70
:100760008107000881070008810700088107000849
:10077000870700088D0700089307000899070008FD
:100780000123FB600BE00223FB6008E00423FB6015
:1007900005E00823FB6002E01023FB6000BFFFF7C9
:1007A00035FF0246FB68B2FBF3F37B607B681846BB
:1007B0001037BD4680BD00BF0010024080B485B038
:1007C00000AF786039600023FB600023BB607B686A
:1007D000414A934209D1414B9B69404A43F48053BB
:1007E00093613F4A3B6813600CE07B683D4A93424B
:1007F00008D13A4BDB69394A43F48043D361384A24
:100800003B685360FB6843F04003FB603B681B7828
:100810001A46FB681343FB603B685B881A46FB681B
:100820001343FB603B689B881A46FB681343FB60DD
:100830003B68DB791A46FB681343FB603B681B7A15
:100840001A46FB681343FB603B689B791A46FB68BA
:100850001343FB603B685B89042B06D13B685B89D3
:100860001A46BB681343BB6005E03B685B891A46C8
:10087000FB681343FB603B681B7B1A46FB68134312
:10088000FB603B685B7B002B1AD03B685B7B1A46A6
:10089000BB681343BB607B680F4A934206D1124B7F
:1008A0001B68114A43F00803136009E07B680D4A96
:1008B000934205D10C4B1B680B4A43F010031360A5
:1008C0007B68FA681A607B68BA685A6000BF1437A0
:1008D000BD4680BC704700BF0030014000100240A0
:1008E0001C0000200038004004E100E080B584B026
:1008F00000AF78607B68734A934269D1724B1B6882
:100900001B78042B34D1704B1B685B89042B0CD1F2
:100910000623BB731023BB810123FB7307F10C0378
:1009200019466A48FFF788FD00BF0623BB732023E2
:10093000BB810123FB7307F10C0319466348FFF7E2
:100940007BFD0123BB734023BB8107F10C031946D8
:100950005E48FFF771FD0623BB738023BB81012333
:10096000FB7307F10C0319465848FFF765FDA4E037
:10097000554B1B685B89002B09D10123BB731023E6
:10098000BB8107F10C0319465048FFF755FD0123C1
:10099000BB732023BB8107F10C0319464B48FFF7BB
:1009A0004BFD0623BB734023BB810123FB7307F17F
:1009B0000C0319464548FFF73FFD0123BB73802315
:1009C000BB8107F10C0319464048FFF735FD74E081
:1009D0007B683F4A934270D13B4B5B681B78042B8A
:1009E00038D1394B5B685B89042B0DD10623BB736F
:1009F0004FF48053BB810123FB7307F10C031946AD
:100A00003448FFF719FD00BF0623BB734FF40053B2
:100A1000BB810123FB7307F10C0319462D48FFF737
:100A20000BFD0123BB734FF48043BB8107F10C0323
:100A300019462848FFF700FD0623BB734FF4004317
:100A4000BB810123FB7307F10C0319462148FFF713
:100A5000F3FC32E01C4B1B685B89002B0AD101239D
:100A6000BB734FF48053BB8107F10C03194619483F
:100A7000FFF7E2FC0123BB734FF40053BB8107F186
:100A80000C0319461348FFF7D7FC0623BB734FF43A
:100A90008043BB810123FB7307F10C0319460D480A
:100AA000FFF7CAFC0123BB734FF40043BB8107F17E
:100AB0000C0319460748FFF7BFFC00BF1037BD46BF
:100AC00080BD00BF003001401C0000200008014034
:100AD00000380040000C014080B485B000AFF860E1
:100AE000B9601346FB71FB79012B06D100BFFB688F
:100AF0009B6803F00103002BF9D0FB68DB689AB216
:100B0000BB681A8000BF1437BD4680BC7047000028
:100B100080B582B000AF134B9B685B0803F0010304
:100B2000DAB23B7962F300033B710E4B9B6803F032
:100B30000103DAB23B7962F341033B71094B9B68D5
:100B40001B0903F00103DAB23B7962F382033B71C4
:100B5000054B1B681B693879984700BF0837BD46AD
:100B600080BD00BF003001401C00002080B582B075
:100B700000AF134B9B685B0803F00103DAB23B79CB
:100B800062F300033B710E4B9B6803F00103DAB282
:100B90003B7962F341033B71094B9B681B0903F0EE
:100BA0000103DAB23B7962F382033B71054B5B6868
:100BB0001B693879984700BF0837BD4680BD00BF24
:100BC000003800401C00002080B584B000AF786081
:100BD00039607B685A4A934209D15A4B9B69594AFA
:100BE00043F480439361584A3B6813601AE07B6882
:100BF000564A934209D1534BDB69524A43F40033BE
:100C0000D361514A3B6853600CE07B68504A934281
:100C100008D14C4BDB694B4A43F48023D3614A4AE9
:100C20003B6893607B68DB6843F400527B68DA6062
:100C30007B68DB683A6812781A437B68DA607B6805
:100C4000DB683A6812891A437B68DA607B68DB6884
:100C50003A6852891A437B68DA607B681B693A6894
:100C600092891A437B681A617B685B693A68D2890A
:100C70001A437B685A617B68314A934203D1FFF77C
:100C80005FFDF86002E0FFF71DFDF8603B685B6800
:100C90001B01FA68B2FBF3F31901FA6813469B00D3
:100CA00013449A001A443B685B689B00B2FBF3F262
:100CB0003B685B681B01F868B0FBF3F3642000FB42
:100CC00003F3D31A1B01234AA2FB03235B0903F09E
:100CD0000F030B43BB607B689A68BB681A437B6851
:100CE0009A603B681B8A002B26D07B68DB683A68D9
:100CF000128A1A437B68DA607B68114A934206D1F4
:100D0000154B1B68144A43F02003136014E07B6802
:100D10000E4A934206D1104B1B680F4A43F0400322
:100D2000136009E07B680A4A934205D10A4B1B68AD
:100D3000094A43F08003136000BF1037BD4680BDF1
:100D40000038014000100240240000200044004010
:100D5000004800401F85EB5104E100E080B588B0F9
:100D600000AF78607B683D4A934224D13C4B9B693D
:100D70003B4A43F004039361394B9B69384A43F083
:100D8000010393610623BB770123FB774FF40073C4
:100D9000BB8307F11C0319463248FFF74DFB0123C3
:100DA000BB764FF480633B8307F1180319462D4847
:100DB000FFF742FB4EE07B682B4A934222D1284B3F
:100DC0009B69274A43F004039361254B9B69244A9E
:100DD00043F0010393610623BB750123FB750423D4
:100DE000BB8207F1140319461E48FFF725FB0123B8
:100DF000BB7408233B8207F1100319461948FFF71B
:100E00001BFB27E07B68194A934223D1144B9B6953
:100E1000134A43F008039361114B9B69104A43F056
:100E2000010393610623BB730123FB734FF48063BB
:100E3000BB8107F10C0319460D48FFF7FDFA0123AA
:100E4000BB724FF400633B8107F108031946084861
:100E5000FFF7F2FA00BF2037BD4680BD00380140E1
:100E600000100240000801400044004000480040DB
:100E7000000C014080B485B000AFF860B960134643
:100E8000FB71FB79012B06D100BFFB681B6803F0E7
:100E90008003002BF9D0FB682B4A934217D12B4BD0
:100EA0001B681B89002B05D1BB681B88DAB2FB6865
:100EB0005A6043E0254B1B681B89B3F5805F3DD129
:100EC000BB681B88C3F30802FB685A6036E0FB6806
:100ED0001F4A934217D11D4B5B681B89002B05D11C
:100EE000BB681B88DAB2FB685A6027E0174B5B6867
:100EF0001B89B3F5805F21D1BB681B88C3F308024F
:100F0000FB685A601AE0FB68124A934216D10F4BF5
:100F10009B681B89002B05D1BB681B88DAB2FB6874
:100F20005A600BE0094B9B681B89B3F5805F05D1C4
:100F3000BB681B88C3F30802FB685A6000BF143704
:100F4000BD4680BC704700BF00380140240000202F
:100F5000004400400048004080B500AF024B1B68D1
:100F60005B69984700BF80BD2400002080B500AFBA
:100F7000024B5B685B69984700BF80BD240000207E
:100F800080B500AF024B9B685B69984700BF80BD8E
:100F90002400002080B400AF00BFBD4680BC704775
:100FA00080B582B000AF38713B7903F00203DBB249
:100FB000002B09D0002206490648FFF78DFD0122CB
:100FC00003490548FFF756FF00BF0837BD4680BDFF
:100FD0006C000020003001400038014080B400AFB8
:100FE000074B9B69064A43F004039361044B9B69DA
:100FF000034A43F00803936100BFBD4680BC7047BD
:101000000010024080B58CB000AFFFF7E7FF0C2363
:101010003B764FF41653FB6100233B8400237B8413
:101020000023BB840023FB8420233B851B4BFB62F6
:1010300007F1180319461A48FFF7C6FD1848FFF7CD
:101040008DFE0023FB8001233B730223FB720023F0
:101050003B810023BB7210233B7400233B710023B0
:10106000FB8140237B740F4B7B6110233B80042367
:10107000BB700123FB703B4619460B48FFF7DCF9B8
:10108000012210210848FFF785FA3B1D1946074841
:10109000FFF794FB0548FFF729FCFEE7950F0008D2
:1010A00000380140A10F0008000801400030014055
:1010B0000D488546AFF300800C480D490D4A0023CA
:1010C00002E0D458C4500433C4188C42F9D30A4AFD
:1010D0000A4C002301E013600432A242FBD300F06B
:1010E00011F8FFF78FFFFEE7002800200000002026
:1010F000000000206C11000800000020700000209B
:10110000FEE7000070B500250C4E0D4CA41BA4108A
:10111000A54209D100F01AF800250A4E0A4CA41B7A
:10112000A410A54205D170BD56F825309847013569
:10113000EEE756F8253098470135F2E764110008CC
:10114000641100086411000868110008F8B500BFB8
:10115000F8BC08BC9E467047F8B500BFF8BC08BC98
:041160009E467047F0
:041164005501000829
:041168003101000849
:04000005080010B12E
:00000001FF
